{
  "contractName": "Footprint",
  "abi": [
    {
      "inputs": [
        {
          "internalType": "address",
          "name": "chgAddress",
          "type": "address"
        }
      ],
      "stateMutability": "nonpayable",
      "type": "constructor"
    },
    {
      "anonymous": false,
      "inputs": [
        {
          "indexed": false,
          "internalType": "address",
          "name": "funder",
          "type": "address"
        },
        {
          "indexed": false,
          "internalType": "address",
          "name": "owner",
          "type": "address"
        },
        {
          "indexed": false,
          "internalType": "string",
          "name": "name",
          "type": "string"
        },
        {
          "indexed": false,
          "internalType": "uint256",
          "name": "amount",
          "type": "uint256"
        }
      ],
      "name": "LogProjectFunded",
      "type": "event"
    },
    {
      "anonymous": false,
      "inputs": [
        {
          "indexed": false,
          "internalType": "address",
          "name": "owner",
          "type": "address"
        },
        {
          "indexed": false,
          "internalType": "string",
          "name": "name",
          "type": "string"
        },
        {
          "indexed": false,
          "internalType": "string",
          "name": "topic",
          "type": "string"
        }
      ],
      "name": "LogProjectProposed",
      "type": "event"
    },
    {
      "inputs": [],
      "name": "changeToken",
      "outputs": [
        {
          "internalType": "contract IERC20",
          "name": "",
          "type": "address"
        }
      ],
      "stateMutability": "view",
      "type": "function",
      "constant": true
    },
    {
      "inputs": [],
      "name": "number_of_projects",
      "outputs": [
        {
          "internalType": "uint256",
          "name": "",
          "type": "uint256"
        }
      ],
      "stateMutability": "view",
      "type": "function",
      "constant": true
    },
    {
      "inputs": [
        {
          "internalType": "uint256",
          "name": "",
          "type": "uint256"
        }
      ],
      "name": "projects",
      "outputs": [
        {
          "internalType": "uint256",
          "name": "uid",
          "type": "uint256"
        },
        {
          "internalType": "address",
          "name": "owner",
          "type": "address"
        },
        {
          "internalType": "string",
          "name": "topic",
          "type": "string"
        },
        {
          "internalType": "string",
          "name": "name",
          "type": "string"
        },
        {
          "internalType": "uint256",
          "name": "valuation",
          "type": "uint256"
        }
      ],
      "stateMutability": "view",
      "type": "function",
      "constant": true
    },
    {
      "inputs": [
        {
          "internalType": "string",
          "name": "topic",
          "type": "string"
        },
        {
          "internalType": "string",
          "name": "name",
          "type": "string"
        }
      ],
      "name": "proposeProject",
      "outputs": [
        {
          "internalType": "uint256",
          "name": "",
          "type": "uint256"
        }
      ],
      "stateMutability": "nonpayable",
      "type": "function"
    },
    {
      "inputs": [
        {
          "internalType": "uint256",
          "name": "uid",
          "type": "uint256"
        },
        {
          "internalType": "uint256",
          "name": "amount",
          "type": "uint256"
        }
      ],
      "name": "fundProject",
      "outputs": [],
      "stateMutability": "nonpayable",
      "type": "function"
    },
    {
      "inputs": [
        {
          "internalType": "uint256",
          "name": "uid",
          "type": "uint256"
        }
      ],
      "name": "getProject",
      "outputs": [
        {
          "internalType": "address",
          "name": "",
          "type": "address"
        },
        {
          "internalType": "string",
          "name": "",
          "type": "string"
        },
        {
          "internalType": "string",
          "name": "",
          "type": "string"
        },
        {
          "internalType": "uint256",
          "name": "",
          "type": "uint256"
        }
      ],
      "stateMutability": "view",
      "type": "function",
      "constant": true
    }
  ],
  "bytecode": "0x608060405234801561001057600080fd5b50604051610f2f380380610f2f8339818101604052602081101561003357600080fd5b81019080805190602001909291905050506000808190555080600260006101000a81548173ffffffffffffffffffffffffffffffffffffffff021916908373ffffffffffffffffffffffffffffffffffffffff16021790555050610e938061009c6000396000f3fe608060405234801561001057600080fd5b50600436106100625760003560e01c806301cda5a414610067578063107046bd1461009f578063184f18fb146101f357806372363da314610211578063cd58c87214610377578063f0f3f2c8146103c1575b600080fd5b61009d6004803603604081101561007d57600080fd5b81019080803590602001909291908035906020019092919050505061050e565b005b6100cb600480360360208110156100b557600080fd5b81019080803590602001909291905050506107f9565b604051808681526020018573ffffffffffffffffffffffffffffffffffffffff1673ffffffffffffffffffffffffffffffffffffffff1681526020018060200180602001848152602001838103835286818151815260200191508051906020019080838360005b8381101561014d578082015181840152602081019050610132565b50505050905090810190601f16801561017a5780820380516001836020036101000a031916815260200191505b50838103825285818151815260200191508051906020019080838360005b838110156101b3578082015181840152602081019050610198565b50505050905090810190601f1680156101e05780820380516001836020036101000a031916815260200191505b5097505050505050505060405180910390f35b6101fb61097f565b6040518082815260200191505060405180910390f35b6103616004803603604081101561022757600080fd5b810190808035906020019064010000000081111561024457600080fd5b82018360208201111561025657600080fd5b8035906020019184600183028401116401000000008311171561027857600080fd5b91908080601f016020809104026020016040519081016040528093929190818152602001838380828437600081840152601f19601f820116905080830192505050505050509192919290803590602001906401000000008111156102db57600080fd5b8201836020820111156102ed57600080fd5b8035906020019184600183028401116401000000008311171561030f57600080fd5b91908080601f016020809104026020016040519081016040528093929190818152602001838380828437600081840152601f19601f820116905080830192505050505050509192919290505050610985565b6040518082815260200191505060405180910390f35b61037f610bca565b604051808273ffffffffffffffffffffffffffffffffffffffff1673ffffffffffffffffffffffffffffffffffffffff16815260200191505060405180910390f35b6103ed600480360360208110156103d757600080fd5b8101908080359060200190929190505050610bf0565b604051808573ffffffffffffffffffffffffffffffffffffffff1673ffffffffffffffffffffffffffffffffffffffff1681526020018060200180602001848152602001838103835286818151815260200191508051906020019080838360005b8381101561046957808201518184015260208101905061044e565b50505050905090810190601f1680156104965780820380516001836020036101000a031916815260200191505b50838103825285818151815260200191508051906020019080838360005b838110156104cf5780820151818401526020810190506104b4565b50505050905090810190601f1680156104fc5780820380516001836020036101000a031916815260200191505b50965050505050505060405180910390f35b600260009054906101000a900473ffffffffffffffffffffffffffffffffffffffff1673ffffffffffffffffffffffffffffffffffffffff166323b872dd336001600086815260200190815260200160002060010160009054906101000a900473ffffffffffffffffffffffffffffffffffffffff16846040518463ffffffff1660e01b8152600401808473ffffffffffffffffffffffffffffffffffffffff1673ffffffffffffffffffffffffffffffffffffffff1681526020018373ffffffffffffffffffffffffffffffffffffffff1673ffffffffffffffffffffffffffffffffffffffff1681526020018281526020019350505050602060405180830381600087803b15801561062157600080fd5b505af1158015610635573d6000803e3d6000fd5b505050506040513d602081101561064b57600080fd5b8101908080519060200190929190505050508060016000848152602001908152602001600020600401600082825401925050819055507f312d503ef5dcc0ec0491a9cf7515fcfb75dc384544fe5ad4c78a7e49b5d8b224336001600085815260200190815260200160002060010160009054906101000a900473ffffffffffffffffffffffffffffffffffffffff166001600086815260200190815260200160002060030184604051808573ffffffffffffffffffffffffffffffffffffffff1673ffffffffffffffffffffffffffffffffffffffff1681526020018473ffffffffffffffffffffffffffffffffffffffff1673ffffffffffffffffffffffffffffffffffffffff168152602001806020018381526020018281038252848181546001816001161561010002031660029004815260200191508054600181600116156101000203166002900480156107e45780601f106107b9576101008083540402835291602001916107e4565b820191906000526020600020905b8154815290600101906020018083116107c757829003601f168201915b50509550505050505060405180910390a15050565b60016020528060005260406000206000915090508060000154908060010160009054906101000a900473ffffffffffffffffffffffffffffffffffffffff1690806002018054600181600116156101000203166002900480601f0160208091040260200160405190810160405280929190818152602001828054600181600116156101000203166002900480156108d15780601f106108a6576101008083540402835291602001916108d1565b820191906000526020600020905b8154815290600101906020018083116108b457829003601f168201915b505050505090806003018054600181600116156101000203166002900480601f01602080910402602001604051908101604052809291908181526020018280546001816001161561010002031660029004801561096f5780601f106109445761010080835404028352916020019161096f565b820191906000526020600020905b81548152906001019060200180831161095257829003601f168201915b5050505050908060040154905085565b60005481565b6000806000808154809291906001019190505590506040518060a001604052808281526020013373ffffffffffffffffffffffffffffffffffffffff1681526020018581526020018481526020016000815250600160008381526020019081526020016000206000820151816000015560208201518160010160006101000a81548173ffffffffffffffffffffffffffffffffffffffff021916908373ffffffffffffffffffffffffffffffffffffffff1602179055506040820151816002019080519060200190610a58929190610db8565b506060820151816003019080519060200190610a75929190610db8565b50608082015181600401559050507fda2ff5b6981e41187d67cbf0f5e91a79c0b6e2c758e37da174a3db4103d4b4cd338486604051808473ffffffffffffffffffffffffffffffffffffffff1673ffffffffffffffffffffffffffffffffffffffff1681526020018060200180602001838103835285818151815260200191508051906020019080838360005b83811015610b1d578082015181840152602081019050610b02565b50505050905090810190601f168015610b4a5780820380516001836020036101000a031916815260200191505b50838103825284818151815260200191508051906020019080838360005b83811015610b83578082015181840152602081019050610b68565b50505050905090810190601f168015610bb05780820380516001836020036101000a031916815260200191505b509550505050505060405180910390a18091505092915050565b600260009054906101000a900473ffffffffffffffffffffffffffffffffffffffff1681565b600060608060006001600086815260200190815260200160002060010160009054906101000a900473ffffffffffffffffffffffffffffffffffffffff1660016000878152602001908152602001600020600201600160008881526020019081526020016000206003016001600089815260200190815260200160002060040154828054600181600116156101000203166002900480601f016020809104026020016040519081016040528092919081815260200182805460018160011615610100020316600290048015610d065780601f10610cdb57610100808354040283529160200191610d06565b820191906000526020600020905b815481529060010190602001808311610ce957829003601f168201915b50505050509250818054600181600116156101000203166002900480601f016020809104026020016040519081016040528092919081815260200182805460018160011615610100020316600290048015610da25780601f10610d7757610100808354040283529160200191610da2565b820191906000526020600020905b815481529060010190602001808311610d8557829003601f168201915b5050505050915093509350935093509193509193565b828054600181600116156101000203166002900490600052602060002090601f016020900481019282601f10610df957805160ff1916838001178555610e27565b82800160010185558215610e27579182015b82811115610e26578251825591602001919060010190610e0b565b5b509050610e349190610e38565b5090565b610e5a91905b80821115610e56576000816000905550600101610e3e565b5090565b9056fea2646970667358221220d1269a8bb3297c6878ed5674569ed0bd294d56f9bec05237d9d8f394d8404a2164736f6c63430006000033",
  "source": "pragma solidity ^0.6.0;\n\nimport \"./CHGToken.sol\";\n\n/*\nversion 0.1 \nauthor: Samuel Tang\n*/\n\ncontract Footprint{\n    \n    uint256 public number_of_projects; // total number of projects\n    \n    struct Project{\n        uint256 uid; // unique id \n        address owner;  // founder address \n        string topic;   // type of project\n        string name;    // name of project\n        uint256 valuation; // amount of token raised\n        // string description; // description of project, off-chain (local database, IPFS, ...)\n        // future work: team members\n    }\n    \n    // uid => project\n    mapping(uint256 => Project) public projects;\n    \n    \n    IERC20 public changeToken; \n    \n    event LogProjectProposed(address owner, string name, string topic);\n    event LogProjectFunded(address funder, address owner, string name, uint256 amount);\n    \n    constructor(address chgAddress) public{\n        number_of_projects = 0;\n        changeToken = CHGToken(chgAddress); \n    }\n    \n    \n    function proposeProject(string memory topic, string memory name) public returns(uint256){\n        uint256 projectID = number_of_projects++;\n        projects[projectID] = Project(projectID, msg.sender, topic, name, 0);\n    \n        emit LogProjectProposed(msg.sender, name, topic);\n        return projectID;\n    }\n    \n    function fundProject(uint256 uid, uint256 amount) public{\n        // user will need to first grant access to this smart contract to transfer their token\n        changeToken.transferFrom(msg.sender, projects[uid].owner, amount);\n        projects[uid].valuation += amount;\n\n        emit LogProjectFunded(msg.sender, projects[uid].owner, projects[uid].name, amount);\n    }\n    \n    function getProject(uint256 uid) public view returns(address, string memory, string memory, uint256){\n        return (projects[uid].owner, projects[uid].topic, projects[uid].name, projects[uid].valuation);\n    }\n    \n}",
  "sourcePath": "/Users/samueltang/Desktop/Project-Footprint/truffle-react/contracts/Footprint.sol",
  "compiler": {
    "name": "solc",
    "version": "0.6.0+commit.26b70077.Emscripten.clang"
  },
  "schemaVersion": "3.3.2",
  "updatedAt": "2020-12-14T19:23:56.444Z",
  "networkType": "ethereum",
  "devdoc": {
    "methods": {}
  },
  "userdoc": {
    "methods": {}
  }
}